:020000040800F2
:1000000000100020A9040008F5040008F504000809
:1000100000000000000000000000000000000000E0
:10002000000000000000000000000000F5040008CF
:100030000000000000000000F5040008F5040008BE
:10004000F5040008F5040008F5040008F5040008AC
:10005000F5040008F5040008F5040008F50400089C
:10006000F5040008F5040008F5040008F50400088C
:10007000F5040008F5040008F5040008F50400087C
:10008000F5040008F504000800000000F50400086D
:10009000F5040008F5040008F5040008F50400085C
:1000A000F5040008F5040008F5040008F50400084C
:1000B000F504000800000000F5040008000000003E
:1000C0005FF808F180B588B000AF78600023FB616D
:1000D0000023BB6100237B6100233B610023FB60A5
:1000E000664B5B680C221340FB61FB69042B07D055
:1000F000082B09D0002B31D17B68614A1A6031E0AE
:100100007B685F4A1A602DE05C4B5A68F0239B03C2
:100110001340BB61594B5A6880235B0213407B61DB
:10012000BB699B0C0233BB617B69002B05D1BB69AA
:10013000544A5A437B681A6014E0504BDB6A0F2222
:10014000134001333B6139694D4800F071FC0300F5
:100150001A00BB695A437B681A6003E07B68484A0F
:100160001A60C046454B5B68F0221340FB61FB6997
:100170001B09FB61444AFB69D3181B78DBB2FB60A7
:100180007B681A68FB68DA407B685A603B4B5A68A8
:10019000E023DB001340FB61FB691B0AFB613A4A69
:1001A000FB69D3181B78DBB2FB607B685A68FB687D
:1001B000DA407B689A60314B1A6B80235B001340F6
:1001C00003D17B68314ADA6010E02C4B5A688023F7
:1001D000DB01134005D17B689B685A087B68DA60B5
:1001E00004E07B689B689A087B68DA60234B1B6B92
:1001F0004022134003D17B68254A1A6103E07B68E3
:10020000802212021A611D4B1B6B1022134003D176
:100210007B681B4A5A6103E07B681A687B685A61F5
:10022000164B1B6B0322134004D17B689A687B68D2
:100230009A611EE0114B1B6B03221340012B04D16A
:100240007B681A687B689A6113E00C4B1B6B032276
:100250001340022B04D17B68802212029A6108E0CD
:10026000064B1B6B03221340032B02D17B68044A0D
:100270009A61C046BD4608B080BDC046001002402D
:1002800000127A0000093D0000000020809FD50088
:100290001280000080B582B000AF78600A00FB1CBD
:1002A0001A70FB1C1B78002B06D0094B084A5169B9
:1002B0007A680A435A6106E0054B054A5269796833
:1002C000C9430A405A61C046BD4602B080BDC0461F
:1002D0000010024080B582B000AF78600A00FB1CBD
:1002E0001A70FB1C1B78002B06D0094B084A916939
:1002F0007A680A439A6106E0054B054A9269796873
:10030000C9430A409A61C046BD4602B080BDC0469E
:100310000010024080B58AB000AF80239B0201210B
:100320001800FFF7B7FF8023DB0101211800FFF75A
:10033000D1FF1823FB1880221A601823FB18012212
:100340001A711823FB1800229A711823FB18032234
:100350005A711823FA189023DB051100180000F0D9
:1003600081F99023DB0500220921180000F02EFA04
:100370001823FB18802292001A601823FB1802220F
:100380001A711823FB1800229A711823FB180322F4
:100390005A711823FA189023DB051100180000F099
:1003A00061F99023DB0500220A21180000F00EFA03
:1003B0001823FB188022D2001A601823FB18002291
:1003C0001A711823FB180022DA711823FA189023E7
:1003D000DB051100180000F045F93B00E122520254
:1003E0001A603B0000225A603B0000229A603B00EA
:1003F0000022DA603B0000225A613B000C221A61A5
:100400003B00274A1900100000F032FA244B01216A
:10041000180000F0DDFA224B4821180000F0F6FA2F
:100420001F4B6521180000F0F1FA1D4B6C211800DC
:1004300000F0ECFA1A4B6C21180000F0E7FA184BA8
:100440006F21180000F0E2FA154B0D21180000F0A2
:10045000DDFA134B0A21180000F0D8FA9023DB05CF
:100460008021180000F092F900237B6202E07B6A91
:1004700001337B627B6A0B4A9342F8DD9023DB05F4
:100480008021180000F092F900233B6202E03B6AF1
:1004900001333B623B6A034A9342F8DDBBE7C04647
:1004A00000380140FFFF0F000C488546002103E0A3
:1004B0000B4B5B58435004310A480B4B42189A428D
:1004C000F6D30A4A02E0002313600432084B9A4232
:1004D000F9D300F011F8FFF71DFFFEE70010002030
:1004E000480B000800000020100000201000002031
:1004F00010000020FEE7000080B500AF1B4B1B4A38
:10050000126801210A431A60184B184A52681849A8
:100510000A405A60154B154A126816490A401A607B
:10052000124B124A126814490A401A600F4B0F4AC4
:10053000526812490A405A600C4B0C4AD26A0F2189
:100540008A43DA62094B094A126B0D490A401A6361
:10055000064B064A526B01218A435A63034B002221
:100560009A6000F00FF8C046BD4680BD0010024002
:100570000CB8FF08FFFFF6FEFFFFFBFFFFFFC0FF09
:10058000ACFEFFFF80B582B000AF00237B6000238C
:100590003B60314B304A1268802149020A431A609D
:1005A0002D4B1A6880239B0213403B607B6801330C
:1005B0007B603B68002B04D17A68A023DB019A4260
:1005C000EED1254B1A6880239B02134002D00123F1
:1005D0003B6001E000233B603B68012B38D11F4B9F
:1005E00011221A601C4B1C4A52685A601A4B1A4A54
:1005F00052685A60184B184A526819490A405A60A2
:10060000154B154A5268882149030A435A60124B18
:10061000114A1268802149040A431A60C0460E4BF1
:100620001A6880239B041340F9D00B4B0A4A526886
:1006300003218A435A60084B074A526802210A4341
:100640005A60C046044B5B680C221340082BF9D15A
:10065000C046BD4602B080BD0010024000200240EE
:10066000FFFFC0FF80B586B000AF7860396000231F
:100670007B6100233B610023FB6000237B617CE006
:1006800001227B699A4013003B613B681B683A6911
:100690001340FB60FA683B699A426BD13B681B7957
:1006A000012B03D03B681B79022B34D17B689B68FC
:1006B0007A695200032191400A00D2431A407B68B4
:1006C0009A607B689A683B685B7919007B695B007C
:1006D00099400B001A437B689A607B689B889BB2A9
:1006E0007A6992B2110001228A4092B2D24392B248
:1006F00013409AB27B689A807B689B889AB23B6869
:100700009B7919007B699BB299400B009BB2134304
:100710009AB27B689A807B681B687A6952000321D1
:1007200091400A00D2431A407B681A607B681A68BD
:100730003B681B7919007B695B0099400B001A43E9
:100740007B681A607B68DB687A6992B25200032189
:1007500091400A00D2431A407B68DA607B68DA680D
:100760003B68DB7919007B695B0099400B001A43F9
:100770007B68DA607B6901337B617B690F2B00D872
:100780007EE7C046BD4606B080BDC04680B582B09B
:1007900000AF78600A00BB1C1A80BB1C1A887B68FB
:1007A0009A61C046BD4602B080BDC04680B582B0E9
:1007B00000AF78600A00BB1C1A807B68BA1C1288E4
:1007C0001A85C046BD4602B080BDC04680B584B023
:1007D00000AF786008001100BB1C021C1A807B1C53
:1007E0000A1C1A700023FB600023BB607B1C1A7874
:1007F000BB1C1B8807210B409B009A401300FB6029
:10080000BB1C1B88DB089BB21800BB1C1B88DB08C9
:100810009BB21A007B6808329200D358BA1C128827
:1008200007210A4092000F2191400A00D2431A404A
:1008300011007B68020008329200D150BB1C1B885B
:10084000DB089BB21A007B6808329200D258FB6822
:100850001343BB60BB1C1B88DB089BB21A007B6880
:1008600008329200B968D150C046BD4604B080BD80
:1008700080B58CB000AF786039600023FB62002344
:10088000BB6200237B627B681B68012293431A00D2
:100890007B681A607B685B687B627B6A474A1340AF
:1008A0007B623B689B687A6A13437B627B687A6AE7
:1008B0005A607B681B687B627B6A414A13407B629B
:1008C0003B685A683B68DB681A433B681B69134303
:1008D0007A6A13437B627B687A6A1A607B689B68DA
:1008E0007B627B6A374A13407B623B685B697A6A4A
:1008F00013437B627B687A6A9A600823FB181800AE
:10090000FFF7E0FB7B68304A934204D10823FB18D1
:100910009B69BB6203E00823FB189B68BB627B6892
:100920001A6880231B02134014D0BB6A5A003B682C
:100930001B681900100000F07BF80300FB62BB6A23
:100940005A003B681B681900100000F0F7F80B0014
:100950007B6210E03B681B681900B86A00F068F819
:100960000300FB623B681A68BB6A1100180000F0C4
:10097000E5F80B007B623B681B685A087B6A9A4269
:1009800002D8FB6A0133FB627B681A6880231B0272
:1009900013400AD0FB6A5B08072213407B62FB6AA4
:1009A0000A4A1A407B6A1343FB62FB6A9AB27B686D
:1009B0009A81C046BD460CB080BDC046FFCFFFFF48
:1009C000F3E9FFFFFFFCFFFF00380140F0FF0000EC
:1009D00080B582B000AF78600A00FB1C1A70FB1C67
:1009E0001B78002B06D07B681B6801221A437B68AA
:1009F0001A6006E07B681B68012293431A007B683B
:100A00001A60C046BD4602B080BDC04680B582B007
:100A100000AF78600A00BB1C1A80BB1C1B88DB057A
:100A2000DB0D9AB27B681A85C046BD4602B080BD18
:100A3000002243088B4274D303098B425FD3030A1D
:100A40008B4244D3030B8B4228D3030C8B420DD330
:100A5000FF22090212BA030C8B4202D312120902BE
:100A600065D0030B8B4219D300E0090AC30B8B42FC
:100A700001D3CB03C01A5241830B8B4201D38B03AA
:100A8000C01A5241430B8B4201D34B03C01A52414F
:100A9000030B8B4201D30B03C01A5241C30A8B4292
:100AA00001D3CB02C01A5241830A8B4201D38B027D
:100AB000C01A5241430A8B4201D34B02C01A524121
:100AC000030A8B4201D30B02C01A5241CDD2C30993
:100AD0008B4201D3CB01C01A524183098B4201D30F
:100AE0008B01C01A524143098B4201D34B01C01AFA
:100AF000524103098B4201D30B01C01A5241C30872
:100B00008B4201D3CB00C01A524183088B4201D3E0
:100B10008B00C01A524143088B4201D34B00C01ACC
:100B20005241411A00D20146524110467047FFE738
:100B300001B5002000F006F802BDC0460029F7D03C
:080B400076E770477047C046DC
:100B4800000000000102030401020304060708096B
:0400000508000000EF
:00000001FF
